{
  "contractName": "CryptoFirst",
  "abi": [
    {
      "inputs": [],
      "stateMutability": "nonpayable",
      "type": "constructor"
    },
    {
      "anonymous": false,
      "inputs": [
        {
          "indexed": false,
          "internalType": "uint256",
          "name": "id",
          "type": "uint256"
        },
        {
          "indexed": false,
          "internalType": "string",
          "name": "name",
          "type": "string"
        },
        {
          "indexed": false,
          "internalType": "string",
          "name": "phone",
          "type": "string"
        }
      ],
      "name": "ContactCreated",
      "type": "event"
    },
    {
      "inputs": [
        {
          "internalType": "uint256",
          "name": "",
          "type": "uint256"
        }
      ],
      "name": "contacts",
      "outputs": [
        {
          "internalType": "uint256",
          "name": "id",
          "type": "uint256"
        },
        {
          "internalType": "string",
          "name": "name",
          "type": "string"
        },
        {
          "internalType": "string",
          "name": "phone",
          "type": "string"
        }
      ],
      "stateMutability": "view",
      "type": "function",
      "constant": true
    },
    {
      "inputs": [],
      "name": "count",
      "outputs": [
        {
          "internalType": "uint256",
          "name": "",
          "type": "uint256"
        }
      ],
      "stateMutability": "view",
      "type": "function",
      "constant": true
    },
    {
      "inputs": [
        {
          "internalType": "string",
          "name": "_name",
          "type": "string"
        },
        {
          "internalType": "string",
          "name": "_phone",
          "type": "string"
        }
      ],
      "name": "createContact",
      "outputs": [],
      "stateMutability": "nonpayable",
      "type": "function"
    },
    {
      "inputs": [],
      "name": "myFunction",
      "outputs": [
        {
          "internalType": "uint256",
          "name": "myNumber",
          "type": "uint256"
        },
        {
          "internalType": "string",
          "name": "myString",
          "type": "string"
        }
      ],
      "stateMutability": "pure",
      "type": "function",
      "constant": true
    }
  ],
  "bytecode": "0x6080604052600080553480156200001557600080fd5b50620000926040518060400160405280600e81526020017f4d616e70726565742053696e67680000000000000000000000000000000000008152506040518060400160405280600581526020017f70686f6e650000000000000000000000000000000000000000000000000000008152506200009860201b60201c565b6200040c565b600080815480929190620000ac9062000259565b9190505550604051806060016040528060005481526020018381526020018281525060016000805481526020019081526020016000206000820151816000015560208201518160010190805190602001906200010a92919062000170565b5060408201518160020190805190602001906200012992919062000170565b509050507f5b238c329575695a37a8c7bec1baf72c825bb21c77c5fe0e5ff503d4850a4fdb600054838360405162000164939291906200035c565b60405180910390a15050565b8280546200017e90620003d6565b90600052602060002090601f016020900481019282620001a25760008555620001ee565b82601f10620001bd57805160ff1916838001178555620001ee565b82800160010185558215620001ee579182015b82811115620001ed578251825591602001919060010190620001d0565b5b509050620001fd919062000201565b5090565b5b808211156200021c57600081600090555060010162000202565b5090565b7f4e487b7100000000000000000000000000000000000000000000000000000000600052601160045260246000fd5b6000819050919050565b600062000266826200024f565b91507fffffffffffffffffffffffffffffffffffffffffffffffffffffffffffffffff8214156200029c576200029b62000220565b5b600182019050919050565b620002b2816200024f565b82525050565b600081519050919050565b600082825260208201905092915050565b60005b83811015620002f4578082015181840152602081019050620002d7565b8381111562000304576000848401525b50505050565b6000601f19601f8301169050919050565b60006200032882620002b8565b620003348185620002c3565b935062000346818560208601620002d4565b62000351816200030a565b840191505092915050565b6000606082019050620003736000830186620002a7565b81810360208301526200038781856200031b565b905081810360408301526200039d81846200031b565b9050949350505050565b7f4e487b7100000000000000000000000000000000000000000000000000000000600052602260045260246000fd5b60006002820490506001821680620003ef57607f821691505b60208210811415620004065762000405620003a7565b5b50919050565b61083f806200041c6000396000f3fe608060405234801561001057600080fd5b506004361061004c5760003560e01c806306661abd146100515780633dce49201461006f578063c3780a3a1461008b578063e0f478cb146100aa575b600080fd5b6100596100dc565b60405161006691906103ed565b60405180910390f35b61008960048036038101906100849190610562565b6100e2565b005b6100936101b2565b6040516100a1929190610662565b60405180910390f35b6100c460048036038101906100bf91906106be565b6101f7565b6040516100d3939291906106eb565b60405180910390f35b60005481565b6000808154809291906100f49061075f565b919050555060405180606001604052806000548152602001838152602001828152506001600080548152602001908152602001600020600082015181600001556020820151816001019080519060200190610150929190610331565b50604082015181600201908051906020019061016d929190610331565b509050507f5b238c329575695a37a8c7bec1baf72c825bb21c77c5fe0e5ff503d4850a4fdb60005483836040516101a6939291906106eb565b60405180910390a15050565b60006060615ba06040518060400160405280600781526020017f48656c6c6f212500000000000000000000000000000000000000000000000000815250915091509091565b6001602052806000526040600020600091509050806000015490806001018054610220906107d7565b80601f016020809104026020016040519081016040528092919081815260200182805461024c906107d7565b80156102995780601f1061026e57610100808354040283529160200191610299565b820191906000526020600020905b81548152906001019060200180831161027c57829003601f168201915b5050505050908060020180546102ae906107d7565b80601f01602080910402602001604051908101604052809291908181526020018280546102da906107d7565b80156103275780601f106102fc57610100808354040283529160200191610327565b820191906000526020600020905b81548152906001019060200180831161030a57829003601f168201915b5050505050905083565b82805461033d906107d7565b90600052602060002090601f01602090048101928261035f57600085556103a6565b82601f1061037857805160ff19168380011785556103a6565b828001600101855582156103a6579182015b828111156103a557825182559160200191906001019061038a565b5b5090506103b391906103b7565b5090565b5b808211156103d05760008160009055506001016103b8565b5090565b6000819050919050565b6103e7816103d4565b82525050565b600060208201905061040260008301846103de565b92915050565b6000604051905090565b600080fd5b600080fd5b600080fd5b600080fd5b6000601f19601f8301169050919050565b7f4e487b7100000000000000000000000000000000000000000000000000000000600052604160045260246000fd5b61046f82610426565b810181811067ffffffffffffffff8211171561048e5761048d610437565b5b80604052505050565b60006104a1610408565b90506104ad8282610466565b919050565b600067ffffffffffffffff8211156104cd576104cc610437565b5b6104d682610426565b9050602081019050919050565b82818337600083830152505050565b6000610505610500846104b2565b610497565b90508281526020810184848401111561052157610520610421565b5b61052c8482856104e3565b509392505050565b600082601f8301126105495761054861041c565b5b81356105598482602086016104f2565b91505092915050565b6000806040838503121561057957610578610412565b5b600083013567ffffffffffffffff81111561059757610596610417565b5b6105a385828601610534565b925050602083013567ffffffffffffffff8111156105c4576105c3610417565b5b6105d085828601610534565b9150509250929050565b600081519050919050565b600082825260208201905092915050565b60005b838110156106145780820151818401526020810190506105f9565b83811115610623576000848401525b50505050565b6000610634826105da565b61063e81856105e5565b935061064e8185602086016105f6565b61065781610426565b840191505092915050565b600060408201905061067760008301856103de565b81810360208301526106898184610629565b90509392505050565b61069b816103d4565b81146106a657600080fd5b50565b6000813590506106b881610692565b92915050565b6000602082840312156106d4576106d3610412565b5b60006106e2848285016106a9565b91505092915050565b600060608201905061070060008301866103de565b81810360208301526107128185610629565b905081810360408301526107268184610629565b9050949350505050565b7f4e487b7100000000000000000000000000000000000000000000000000000000600052601160045260246000fd5b600061076a826103d4565b91507fffffffffffffffffffffffffffffffffffffffffffffffffffffffffffffffff82141561079d5761079c610730565b5b600182019050919050565b7f4e487b7100000000000000000000000000000000000000000000000000000000600052602260045260246000fd5b600060028204905060018216806107ef57607f821691505b60208210811415610803576108026107a8565b5b5091905056fea2646970667358221220b5166b651465a2a89d6d830905aa8382b61c4f4d82560b1002e02bc4e0a9658264736f6c634300080b0033",
  "immutableReferences": {},
  "source": "//SPDX-License-Identifier: MIT\r\n\r\npragma solidity >=0.4.22 <0.9.0;\r\n\r\ncontract CryptoFirst {\r\n    uint public count = 0;\r\n\r\n    struct Contact {\r\n        uint id;\r\n        string name;\r\n        string phone;\r\n    }\r\n\r\n    constructor() {\r\n        createContact(\"Manpreet Singh\", \"phone\");\r\n    }\r\n\r\n    mapping(uint256 => Contact) public contacts;\r\n\r\n    event ContactCreated(uint id, string name, string phone);\r\n\r\n    function createContact(string memory _name, string memory _phone) public {\r\n        count ++;\r\n        contacts[count] = Contact(count, _name, _phone);\r\n        emit ContactCreated(count, _name, _phone);\r\n    }\r\n\r\n    function myFunction() public pure returns(uint256 myNumber, string memory myString) {\r\n        return (23456, \"Hello!%\");\r\n    }\r\n}\r\n",
  "sourcePath": "H:\\My VS Projects\\solidity\\Crypto-Solidity\\contracts\\contracts\\CryptoFirst.sol",
  "compiler": {
    "name": "solc",
    "version": "0.8.11+commit.d7f03943.Emscripten.clang"
  },
  "schemaVersion": "3.4.4",
  "updatedAt": "2022-01-21T08:27:56.092Z",
  "networkType": "ethereum",
  "devdoc": {
    "kind": "dev",
    "methods": {},
    "version": 1
  },
  "userdoc": {
    "kind": "user",
    "methods": {},
    "version": 1
  }
}