{
  "contractName": "simpleTest",
  "abi": [
    {
      "inputs": [],
      "name": "getName",
      "outputs": [
        {
          "internalType": "string",
          "name": "",
          "type": "string"
        }
      ],
      "stateMutability": "view",
      "type": "function"
    }
  ],
  "bytecode": "0x60806040526040518060400160405280600e81526020017f4d616e70726565742053696e67680000000000000000000000000000000000008152506000908051906020019061004f929190610062565b5034801561005c57600080fd5b50610166565b82805461006e90610134565b90600052602060002090601f01602090048101928261009057600085556100d7565b82601f106100a957805160ff19168380011785556100d7565b828001600101855582156100d7579182015b828111156100d65782518255916020019190600101906100bb565b5b5090506100e491906100e8565b5090565b5b808211156101015760008160009055506001016100e9565b5090565b7f4e487b7100000000000000000000000000000000000000000000000000000000600052602260045260246000fd5b6000600282049050600182168061014c57607f821691505b602082108114156101605761015f610105565b5b50919050565b610232806101756000396000f3fe608060405234801561001057600080fd5b506004361061002b5760003560e01c806317d7de7c14610030575b600080fd5b61003861004e565b6040516100459190610179565b60405180910390f35b60606000805461005d906101ca565b80601f0160208091040260200160405190810160405280929190818152602001828054610089906101ca565b80156100d65780601f106100ab576101008083540402835291602001916100d6565b820191906000526020600020905b8154815290600101906020018083116100b957829003601f168201915b5050505050905090565b600081519050919050565b600082825260208201905092915050565b60005b8381101561011a5780820151818401526020810190506100ff565b83811115610129576000848401525b50505050565b6000601f19601f8301169050919050565b600061014b826100e0565b61015581856100eb565b93506101658185602086016100fc565b61016e8161012f565b840191505092915050565b600060208201905081810360008301526101938184610140565b905092915050565b7f4e487b7100000000000000000000000000000000000000000000000000000000600052602260045260246000fd5b600060028204905060018216806101e257607f821691505b602082108114156101f6576101f561019b565b5b5091905056fea264697066735822122024232556050a80156f6f87e50c1d6dad40005dc338876481ae7f6ade40407cda64736f6c634300080b0033",
  "immutableReferences": {},
  "source": "//SPDX-License-Identifier: MIT\r\n\r\npragma solidity >=0.8.0 < 0.9.0;\r\n\r\ncontract simpleTest {\r\n\r\n    string private name = \"Manpreet Singh\";\r\n\r\n    function getName() public view returns(string memory)\r\n     {\r\n        return name;\r\n    }\r\n}\r\n\r\n",
  "sourcePath": "H:\\My VS Projects\\solidity\\contracts\\contracts\\SimpleTest.sol",
  "compiler": {
    "name": "solc",
    "version": "0.8.11+commit.d7f03943.Emscripten.clang"
  },
  "schemaVersion": "3.4.4",
  "updatedAt": "2022-01-19T11:38:39.113Z",
  "devdoc": {
    "kind": "dev",
    "methods": {},
    "version": 1
  },
  "userdoc": {
    "kind": "user",
    "methods": {},
    "version": 1
  }
}